:020000000328D3
:1000060083120313A201A301831686010714831228
:100016008601071C1128A20A0319A30A0330FB0054
:100026000830FC007730FD00FD0B1728FC0B172865
:10003600FB0B172800302306031D23280130220658
:10004600031D2828FF308600492800302306031D9B
:100056002E2802302206031D3328553086004928F3
:1000660000302306031D392803302206031D3E28CF
:10007600AA308600492800302306031D4428043090
:100086002206031D49288601A201A3010C284A283D
:02400E004A2F37
:00000001FF
